:020000040800F2
:10000000900600202902000831020008330200088F
:10001000350200083702000839020008000000001D
:100020000000000000000000000000003B0200088B
:100030003D020008000000003F02000841020008E5
:10004000430200084302000843020008430200087C
:10005000430200084302000843020008DD020008D2
:100060004903000843020008430200084302000855
:10007000430200084302000843020008430200084C
:10008000430200084302000843020008430200083C
:10009000430200084302000843020008430200082C
:1000A000430200084302000843020008430200081C
:1000B000430200084302000843020008430200080C
:1000C00043020008430200084302000843020008FC
:1000D00043020008430200084302000843020008EC
:1000E00043020008430200084302000843020008DC
:1000F00043020008430200084302000843020008CC
:1001000043020008430200084302000843020008BB
:1001100043020008430200084302000843020008AB
:10012000430200084302000843020008430200089B
:10013000430200084302000843020008430200088B
:10014000430200084302000843020008430200087B
:10015000430200084302000843020008430200086B
:10016000430200084302000843020008430200085B
:10017000430200084302000843020008430200084B
:10018000430200084302000800F002F800F03CF8C7
:100190000AA090E8000C82448344AAF10107DA45E2
:1001A00001D100F031F8AFF2090EBAE80F0013F0F8
:1001B000010F18BFFB1A43F001031847C8040000E1
:1001C000E8040000103A24BF78C878C1FAD8520772
:1001D00024BF30C830C144BF04680C6070470000C1
:1001E0000023002400250026103A28BF78C1FBD840
:1001F000520728BF30C148BF0B6070471FB500F0E1
:100200003BFA1FBD10B510BD00F031F81146FFF7E5
:10021000F5FF00F0ABF900F04FF803B4FFF7F2FF81
:1002200003BC00F053F80000094880470948004724
:10023000FEE7FEE7FEE7FEE7FEE7FEE7FEE7FEE796
:10024000FEE7FEE704480549054A064B70470000F3
:100250001105000889010008900000209006002088
:10026000900200209002002070477047704775464A
:1002700000F028F8AE4605006946534620F0070016
:10028000854618B020B5FFF7DDFFBDE820404FF0F0
:1002900000064FF000074FF000084FF0000B21F070
:1002A0000701AC46ACE8C009ACE8C009ACE8C0093D
:1002B000ACE8C0098D4670470446AFF30080204685
:1002C000FFF7ABFF004870473000002001491820BD
:1002D000ABBEFEE7260002007047000010B54FF0ED
:1002E0008040018881F0010101804FF0E021D1F8C8
:1002F000802122F08002C1F88021436A104A936075
:100300001368446A5B08B3FBF4F353610022426252
:100310000282028842F0010202800A48026842F02A
:1003200002020260D1F8800240F08000C1F8800231
:10033000D1F8000140F4C070C1F8000110BD000008
:1003400000000020143C014030B51949088880F0B5
:10035000010008804FF0E020D0F8802122F4807264
:10036000C0F88021124A24321468124BDC601C68E9
:1003700015686408B4FBF5F49C61002313600C4A13
:10038000103213800A8842F001020A800A490A6882
:1003900042F008020A60D0F8801241F48071C0F87F
:1003A0008012D0F8001141F4C071C0F8001130BDC6
:1003B000000C004000000020143C0140264A10B50B
:1003C000106840F080701060131D186800F48050B1
:1003D0001860181D016821F040710160016841F04A
:1003E00000710160011D0C6824F040740C600C6801
:1003F00044F080740C60146844F0805414601C68ED
:1004000004F480441C60046824F0405404600468D0
:1004100044F0005404600C6824F040540C600C68F4
:1004200044F080540C60146844F0806414601A68CE
:1004300002F400521A60026822F040620260026810
:1004400042F000620260086820F0406008600868BE
:1004500040F08060086010BD000C02400CB5002226
:10046000274900920192086840F4803008604FF4F8
:10047000A043086800F4003001900098401C0090F0
:10048000019810B900989842F3D10868800334D5D8
:10049000012001901A484030026842F08052026008
:1004A0001848026842F44042026015480830026869
:1004B0000260026842F400420260026842F4A05204
:1004C0000260031F104A1A600A6842F080720A60D4
:1004D0000A689201FCD50D4940F205720A60016874
:1004E00021F003010160016841F00201016001682F
:1004F000C1F381010229FAD10CBD01920CBD0000AB
:10050000003802400070004008544007003C0240A0
:10051000124810B5016841F470010160104801688B
:1005200041F0010101600E4A0021083211600268A9
:100530000C4B1A400260031D0B4A1A60026822F439
:100540008022026006480C300160FFF787FF0349F4
:100550004FF000608039086010BD000088ED00E0B9
:1005600000380240FFFFF6FE103000243D480168CD
:1005700041F001010160016841F002010160016880
:1005800041F00801016037481030016841F0010175
:100590000160016841F008010160334C4FF0804573
:1005A000206861684008B0FBF1F0401E206128859A
:1005B0002E490880FFF702FF2D49086840F002002D
:1005C00008602B4A1432106840F002001060284B7B
:1005D0000C33186840F0020018604FF0E020D0F8AB
:1005E000006146F08006C0F80061D0F8806246F0F5
:1005F0008006C0F880620E6846F004060E6011683E
:1006000041F004011160196841F004011960D0F84B
:10061000001141F48071C0F80011D0F8801241F44B
:100620008071C0F88012288840F0010028800F48AF
:100630002838018841F00101018000200D49E06166
:10064000288AC00704D0086840F480400860F7E7B3
:10065000A069626900EB80004000B0FBF2F0E0614D
:10066000EEE700003038024000000020280C004077
:10067000003C0140140C02404FF04070E1EE100AC3
:1006800070470000A40600080000002030000000B1
:10069000C4010008D40600083000002060060000F5
:1006A000E0010008007A030A40420F000000000049
:1006B000000000000000000000000000000000003A
:1006C0000000000000000000000000000102030420
:0406D0000607080908
:0400000508000229C4
:00000001FF
